:020000040800F2
:1030000000500020D95E0008795F0008859700080D
:10301000795F0008795F0008795F00080000000010
:10302000000000000000000000000000E5110108A1
:10303000795F00080000000081120108D1DB000860
:10304000795F0008795F0008795F0008795F000800
:10305000795F0008795F0008795F0008714C00080B
:10306000795F0008795F0008795F0008795F0008E0
:10307000795F0008795F00084DE50008795F000876
:10308000795F0008795F0008795F0008795F0008C0
:10309000F1200108795F0008795F0008754C00088D
:1030A000795F0008795F0008795F0008555E0008C5
:1030B000615E0008695E0008755E000869D8000856
:1030C0004DDA00086DD8000849DA0008795F000879
:1030D000795F000881E50008B9E50008795F00081C
:1030E00035470008795F0008F5200108000000005E
:1030F00000000000000000000000000000000000D0
:0C31000000000000000000005FF808F173
:10311000044B05481B1A062B02D9044B03B1184770
:10312000704700BF970600209406002000000000B2
:1031300005490648091A891001EBD171491002D0DE
:10314000034B03B1184770479406002094060020F3
:103150000000000010B5064C237843B9FFF7D8FFF4
:10316000044B13B10448AFF300800123237010BD5A
:103170009406002000000000B484010808B5084B44
:103180001BB108490848AFF300800848036813B929
:10319000BDE80840CCE7064B002BF9D09847F7E78D
:1031A0000000000098060020B48401089406002066
:1031B0000000000081F0004102E000BF83F0004306
:1031C00030B54FEA41044FEA430594EA050F08BFC2
:1031D00090EA020F1FBF54EA000C55EA020C7FEA86
:1031E000645C7FEA655C00F0E2804FEA5454D4EB03
:1031F0005555B8BF6D420CDD2C4480EA020281EACD
:10320000030382EA000083EA010180EA020281EA04
:103210000303362D88BF30BD11F0004F4FEA013156
:103220004FF4801C4CEA113102D0404261EB410165
:1032300013F0004F4FEA03334CEA133302D05242EB
:1032400063EB430394EA050F00F0A780A4F10104A7
:10325000D5F1200E0DDB02FA0EFC22FA05F28018E1
:1032600041F1000103FA0EF2801843FA05F35941C7
:103270000EE0A5F120050EF1200E012A03FA0EFC46
:1032800028BF4CF0020C43FA05F3C01851EBE37170
:1032900001F0004507D54FF0000EDCF1000C7EEB8D
:1032A00000006EEB0101B1F5801F1BD3B1F5001FCB
:1032B0000CD349085FEA30004FEA3C0C04F10104EA
:1032C0004FEA445212F5800F80F09A80BCF1004F13
:1032D00008BF5FEA500C50F1000041EB045141EA95
:1032E000050130BD5FEA4C0C404141EB010111F496
:1032F000801FA4F10104E9D191F0000F04BF014641
:103300000020B1FA81F308BF2033A3F10B03B3F11E
:1033100020020CDA0C3208DD02F1140CC2F10C02AE
:1033200001FA0CF021FA02F10CE002F11402D8BF0C
:10333000C2F1200C01FA02F120FA0CFCDCBF41EAD8
:103340000C019040E41AA2BF01EB0451294330BDA7
:103350006FEA04041F3C1CDA0C340EDC04F1140484
:10336000C4F1200220FA04F001FA02F340EA03005B
:1033700021FA04F345EA030130BDC4F10C04C4F1A1
:10338000200220FA02F001FA04F340EA0300294681
:1033900030BD21FA04F0294630BD94F0000F83F4CB
:1033A000801306BF81F480110134013D4EE77FEAAE
:1033B000645C18BF7FEA655C29D094EA050F08BFFA
:1033C00090EA020F05D054EA000C04BF19461046DB
:1033D00030BD91EA030F1EBF0021002030BD5FEA1F
:1033E000545C05D14000494128BF41F0004130BD47
:1033F00014F580043CBF01F5801130BD01F000459B
:1034000045F0FE4141F470014FF0000030BD7FEA0D
:10341000645C1ABF194610467FEA655C1CBF0B4608
:10342000024650EA013406BF52EA033591EA030F1F
:1034300041F4002130BD00BF90F0000F04BF002117
:10344000704730B54FF4806404F132044FF000054A
:103450004FF0000150E700BF90F0000F04BF0021C3
:10346000704730B54FF4806404F1320410F0004529
:1034700048BF40424FF000013EE700BF42004FEA24
:10348000E2014FEA31014FEA02701FBF12F07F43A1
:1034900093F07F4F81F06051704792F0000F14BF9E
:1034A00093F07F4F704730B54FF4607401F00045E2
:1034B00021F0004120E700BF50EA010208BF704739
:1034C00030B54FF000050AE050EA010208BF70472E
:1034D00030B511F0004502D5404261EB41014FF497
:1034E000806404F132045FEA915C3FF4DCAE4FF09B
:1034F00003025FEADC0C18BF03325FEADC0C18BF82
:10350000033202EBDC02C2F1200300FA03FC20FAD2
:1035100002F001FA03FE40EA0E0021FA02F114441F
:10352000C1E600BF70B54FF0FF0C4CF4E06C1CEA34
:1035300011541DBF1CEA135594EA0C0F95EA0C0FA9
:1035400000F0DEF82C4481EA030621EA4C5123EA1C
:103550004C5350EA013518BF52EA033541F480114B
:1035600043F4801338D0A0FB02CE4FF00005E1FBFE
:1035700002E506F00042E0FB03E54FF00006E1FB48
:1035800003569CF0000F18BF4EF0010EA4F1FF048B
:10359000B6F5007F64F5407404D25FEA4E0E6D41CB
:1035A00046EB060642EAC62141EA55514FEAC520DC
:1035B00040EA5E504FEACE2EB4F1FD0C88BFBCF558
:1035C000E06F1ED8BEF1004F08BF5FEA500E50F109
:1035D000000041EB045170BD06F0004646EA0101CF
:1035E00040EA020081EA0301B4EB5C04C2BFD4EB01
:1035F0000C0541EA045170BD41F480114FF0000EFA
:10360000013C00F3AB8014F1360FDEBF002001F067
:10361000004170BDC4F10004203C35DA0C341BDCE1
:1036200004F11404C4F1200500FA05F320FA04F0B3
:1036300001FA05F240EA020001F0004221F00041E7
:1036400010EBD37021FA04F642EB06015EEA430E5A
:1036500008BF20EAD37070BDC4F10C04C4F120058A
:1036600000FA04F320FA05F001FA04F240EA02003D
:1036700001F0004110EBD37041F100015EEA430E0E
:1036800008BF20EAD37070BDC4F1200500FA05F22E
:103690004EEA020E20FA04F301FA05F243EA0203AD
:1036A00021FA04F001F0004121FA04F220EA0200BC
:1036B00000EBD3705EEA430E08BF20EAD37070BD02
:1036C00094F0000F0FD101F00046400041EB0101E2
:1036D00011F4801F08BF013CF7D041EA060195F0C4
:1036E000000F18BF704703F00046520043EB03037E
:1036F00013F4801F08BF013DF7D043EA060370476B
:1037000094EA0C0F0CEA135518BF95EA0C0F0CD075
:1037100050EA410618BF52EA4306D1D181EA0301BB
:1037200001F000414FF0000070BD50EA410606BFB5
:103730001046194652EA430619D094EA0C0F02D1FA
:1037400050EA013613D195EA0C0F05D152EA03363F
:103750001CBF104619460AD181EA030101F000415D
:1037600041F0FE4141F470014FF0000070BD41F0A6
:10377000FE4141F4780170BD70B54FF0FF0C4CF480
:10378000E06C1CEA11541DBF1CEA135594EA0C0F9F
:1037900095EA0C0F00F0A7F8A4EB050481EA030EEC
:1037A00052EA03354FEA013100F088804FEA0333D3
:1037B0004FF0805545EA131343EA12634FEA0222A1
:1037C00045EA111545EA10654FEA00260EF0004162
:1037D0009D4208BF964244F1FD0404F5407402D2B4
:1037E0005B084FEA3202B61A65EB03055B084FEA45
:1037F00032024FF480104FF4002CB6EB020E75EB42
:10380000030E22BFB61A754640EA0C005B084FEA69
:103810003202B6EB020E75EB030E22BFB61A7546E6
:1038200040EA5C005B084FEA3202B6EB020E75EB31
:10383000030E22BFB61A754640EA9C005B084FEAA9
:103840003202B6EB020E75EB030E22BFB61A7546B6
:1038500040EADC0055EA060E18D04FEA051545EAA5
:1038600016754FEA06164FEAC30343EA52734FEA4E
:10387000C2025FEA1C1CC0D111F4801F0BD141EAC7
:1038800000014FF000004FF0004CB6E711F4801F2C
:1038900004BF01430020B4F1FD0C88BFBCF5E06F0C
:1038A0003FF6AFAEB5EB030C04BFB6EB020C5FEA1C
:1038B000500C50F1000041EB045170BD0EF0004E71
:1038C0004EEA113114EB5C04C2BFD4EB0C0541EAA3
:1038D000045170BD41F480114FF0000E013C90E6A0
:1038E00045EA060E8DE60CEA135594EA0C0F08BF64
:1038F00095EA0C0F3FF43BAF94EA0C0F0AD150EA63
:1039000001347FF434AF95EA0C0F7FF425AF1046F5
:1039100019462CE795EA0C0F06D152EA03353FF41D
:10392000FDAE1046194622E750EA410618BF52EA9A
:1039300043067FF4C5AE50EA41047FF40DAF52EA6E
:1039400043057FF4EBAE12E74FF0FF3C06E000BF0B
:103950004FF0010C02E000BF4FF0010C4DF804CD18
:103960004FEA410C7FEA6C5C4FEA430C18BF7FEAD8
:103970006C5C1BD001B050EA410C0CBF52EA430C06
:1039800091EA030F02BF90EA020F0020704710F186
:10399000000F91EA030F58BF994208BF90422CBF15
:1039A000D8176FEAE37040F0010070474FEA410C0E
:1039B0007FEA6C5C02D150EA013C07D14FEA430C2C
:1039C0007FEA6C5CD6D152EA033CD3D05DF8040B9D
:1039D000704700BF8446104662468C4619466346CF
:1039E00000E000BF01B5FFF7B7FF002848BF10F1A6
:1039F000000F01BD4DF808EDFFF7F4FF0CBF0120EB
:103A000000205DF808FB00BF4DF808EDFFF7EAFF66
:103A100034BF012000205DF808FB00BF4DF808ED21
:103A2000FFF7E0FF94BF012000205DF808FB00BF16
:103A30004DF808EDFFF7CEFF94BF012000205DF8A0
:103A400008FB00BF4DF808EDFFF7C4FF34BF0120AD
:103A500000205DF808FB00BF4FEA4102B2F1E043ED
:103A600024BFB3F5001CDCF1FE5C0DD901F0004C65
:103A70004FEAC0024CEA5070B2F1004F40EB8300B5
:103A800008BF20F00100704711F0804F21D113F1E1
:103A90003872BCBF01F00040704741F480114FEA1A
:103AA0005252C2F11802C2F1200C10FA0CF320FAA3
:103AB00002F018BF40F001004FEAC1234FEAD323C0
:103AC00003FA0CFC40EA0C0023FA02F34FEA43032A
:103AD000CCE77FEA625307D150EA01331EBF4FF0B3
:103AE000FE4040F44000704701F0004040F0FE40CE
:103AF00040F40000704700BF80F0004002E000BFCB
:103B000081F0004142001FBF5FEA410392EA030FC8
:103B10007FEA226C7FEA236C6AD04FEA1262D2EB12
:103B20001363C1BFD218414048404140B8BF5B4217
:103B3000192B88BF704710F0004F40F4000020F0B0
:103B40007F4018BF404211F0004F41F4000121F0C6
:103B50007F4118BF494292EA030F3FD0A2F1010210
:103B600041FA03FC10EB0C00C3F1200301FA03F14E
:103B700000F0004302D5494260EB4000B0F5000F71
:103B800013D3B0F1807F06D340084FEA310102F130
:103B90000102FE2A51D2B1F1004F40EBC25008BFE2
:103BA00020F0010040EA03007047490040EB0000AC
:103BB00010F4000FA2F10102EDD1B0FA80FCACF1DB
:103BC000080CB2EB0C0200FA0CF0AABF00EBC250DA
:103BD00052421843BCBFD0401843704792F0000FC8
:103BE00081F4000106BF80F400000132013BB5E71B
:103BF0004FEA41037FEA226C18BF7FEA236C21D091
:103C000092EA030F04D092F0000F08BF08467047F5
:103C100090EA010F1CBF0020704712F07F4F04D1C3
:103C2000400028BF40F00040704712F100723CBFD6
:103C300000F50000704700F0004343F0FE4040F400
:103C4000000070477FEA226216BF08467FEA2363BE
:103C50000146420206BF5FEA412390EA010F40F4A9
:103C6000800070474FF0000304E000BF10F00043F5
:103C700048BF40425FEA000C08BF704743F09643DC
:103C800001464FF000001CE050EA010208BF7047F7
:103C90004FF000030AE000BF50EA010208BF70477E
:103CA00011F0004302D5404261EB41015FEA010C93
:103CB00002BF84460146002043F0B64308BFA3F18B
:103CC0008053A3F50003BCFA8CF2083AA3EBC2536D
:103CD00010DB01FA02FC634400FA02FCC2F120028C
:103CE000BCF1004F20FA02F243EB020008BF20F0C3
:103CF0000100704702F1200201FA02FCC2F1200229
:103D000050EA4C0021FA02F243EB020008BF20EA1D
:103D1000DC7070474FF0FF0C1CEAD0521EBF1CEA4B
:103D2000D15392EA0C0F93EA0C0F6FD01A4480EA39
:103D3000010C400218BF5FEA41211ED04FF0006322
:103D400043EA501043EA5111A0FB01310CF000404E
:103D5000B1F5000F3EBF490041EAD3715B0040EA74
:103D6000010062F17F02FD2A1DD8B3F1004F40EB44
:103D7000C25008BF20F00100704790F0000F0CF017
:103D8000004C08BF49024CEA502040EA51207F3ADB
:103D9000C2BFD2F1FF0340EAC250704740F40000B6
:103DA0004FF00003013A5DDC12F1190FDCBF00F0A7
:103DB00000407047C2F10002410021FA02F1C2F155
:103DC000200200FA02FC5FEA310040F1000053EAF1
:103DD0004C0308BF20EADC70704792F0000F00F03F
:103DE000004C02BF400010F4000F013AF9D040EA45
:103DF0000C0093F0000F01F0004C02BF490011F4D9
:103E0000000F013BF9D041EA0C018FE70CEAD153D6
:103E100092EA0C0F18BF93EA0C0F0AD030F0004C56
:103E200018BF31F0004CD8D180EA010000F000400A
:103E3000704790F0000F17BF90F0004F084691F0C8
:103E4000000F91F0004F14D092EA0C0F01D1420202
:103E50000FD193EA0C0F03D14B0218BF084608D1CB
:103E600080EA010000F0004040F0FE4040F4000015
:103E7000704740F0FE4040F4400070474FF0FF0CA8
:103E80001CEAD0521EBF1CEAD15392EA0C0F93EAEF
:103E90000C0F69D0A2EB030280EA010C49024FEA41
:103EA000402037D04FF0805343EA111143EA1013FA
:103EB0000CF000408B4238BF5B0042F17D024FF4B2
:103EC000000C8B4224BF5B1A40EA0C00B3EB510F8D
:103ED00024BFA3EB510340EA5C00B3EB910F24BF76
:103EE000A3EB910340EA9C00B3EBD10F24BFA3EBFB
:103EF000D10340EADC001B0118BF5FEA1C1CE0D1C3
:103F0000FD2A3FF650AF8B4240EBC25008BF20F075
:103F1000010070470CF0004C4CEA50207F32C2BFC9
:103F2000D2F1FF0340EAC250704740F400004FF066
:103F30000003013A37E792F0000F00F0004C02BF97
:103F4000400010F4000F013AF9D040EA0C0093F061
:103F5000000F01F0004C02BF490011F4000F013BBB
:103F6000F9D041EA0C0195E70CEAD15392EA0C0F23
:103F700008D142027FF47DAF93EA0C0F7FF470AF5B
:103F8000084676E793EA0C0F04D14B023FF44CAF9E
:103F900008466EE730F0004C18BF31F0004CCAD133
:103FA00030F000427FF45CAF31F000437FF43CAF6F
:103FB0005FE700BF4FF0FF3C06E000BF4FF0010C91
:103FC00002E000BF4FF0010C4DF804CD4FEA400273
:103FD0004FEA41037FEA226C18BF7FEA236C11D0BD
:103FE00001B052EA530C18BF90EA010F58BFB2EB70
:103FF000030088BFC81738BF6FEAE17018BF40F0F0
:10400000010070477FEA226C02D15FEA402C05D1A3
:104010007FEA236CE4D15FEA412CE1D05DF8040B28
:10402000704700BF844608466146FFE70FB5FFF7BB
:10403000C9FF002848BF10F1000F0FBD4DF808ED73
:10404000FFF7F4FF0CBF012000205DF808FB00BF64
:104050004DF808EDFFF7EAFF34BF012000205DF8BE
:1040600008FB00BF4DF808EDFFF7E0FF94BF01200B
:1040700000205DF808FB00BF4DF808EDFFF7D2FF08
:1040800094BF012000205DF808FB00BF4DF808ED4B
:10409000FFF7C8FF34BF012000205DF808FB00BF18
:1040A0004FEA4002B2F1FE4F0FD34FF09E03B3EB45
:1040B00012620DD94FEA002343F0004310F0004F85
:1040C00023FA02F018BF404270474FF000007047DB
:1040D00012F1610F01D1420205D110F0004008BF7A
:1040E0006FF0004070474FF00000704742000ED262
:1040F000B2F1FE4F0BD34FF09E03B3EB126209D423
:104100004FEA002343F0004323FA02F070474FF0D8
:104110000000704712F1610F01D1420202D14FF04D
:10412000FF3070474FF00000704700BF844641EAFF
:10413000000313F0030349D1403A23D30B68036013
:104140004B6843608B688360CB68C3600B69036115
:104150004B6943618B698361CB69C3610B6A0362FD
:104160004B6A43628B6A8362CB6AC3620B6B0363E5
:104170004B6B43638B6B8363CB6BC36340304031CA
:10418000403ADBD230320BD30B6803604B6843609C
:104190008B688360CB68C36010301031103AF3D263
:1041A0000C3205D351F8043B40F8043B043AF9D2F1
:1041B000043208D0D2071CBF11F8013B00F8013BC4
:1041C00001D30B8803806046704700BF082A13D3D1
:1041D0008B07B1D010F00303AED0C3F10403D21AA1
:1041E000DB071CBF11F8013B00F8013BA4D331F8F9
:1041F000023B20F8023B9FE7043AD9D3013A11F879
:10420000013B00F8013BF9D20B7803704B78437007
:104210008B788370604670472DE9F041057890B047
:104220002F1C0646344818BF01270AF0DFFE334B27
:1042300000240593324BA54206930CBF23468023EE
:104240000A934FF480730B934FF480630C934FF0F9
:10425000200314BF4FF002084FF001080D9305A989
:104260004FF4005324480E930794CDF8208009940E
:104270000F940AF033FF01211F480AF05AFF4FF450
:1042800060238DF80470694601271E48029300944C
:104290008DF8057003948DF810800AF00FFE03234B
:1042A0003A460A2117480AF05AFE2DB1032302228A
:1042B000317814480AF053FE012112480AF02BFE0F
:1042C000104801210AF01EFE0E480AF02DFE0D488E
:1042D0000AF02FFE0028FAD10A480AF02EFE0948FB
:1042E0000AF030FE0028FAD1012106480AF02EFE1D
:1042F00010B0BDE8F08100BF080002404C2401402E
:10430000B006002000240140024B33F8100080B2B8
:10431000704700BFB00600202DE9FF41334B8046B7
:104320001B78002B3AD0002425462646274602ABB0
:1043300008223221532009F0EDFB9DF809209DF859
:104340000830013403EB02231BB29DF80B201F44FD
:104350009DF80A30E4B203EB02231BB21E449DF821
:104360000D209DF80C30202C03EB02231BB21D44C2
:104370009DF80F3003F07F0301D0002BD7D197FBBE
:10438000F4F796FBF4F695FBF4F5194BADF80070D5
:10439000ADF80260ADF804501C701DE002AB0622BF
:1043A0003221532009F0B6FB9DF809209DF8083012
:1043B00003EB0223ADF800309DF80B209DF80A3086
:1043C00003EB0223ADF802309DF80D209DF80C3070
:1043D00003EB0223ADF80430064B41461A786846D9
:1043E0000AF07CFC04B0BDE8F08100BFB4060020F8
:1043F000B506002000000020154B10B51B780446C0
:1044000008222D21532073B109F07AFB0A223121B1
:10441000532009F075FB0C222C21532009F070FB6E
:104420009022382108E009F06BFB0A223121532049
:1044300009F066FB0A222C21532009F061FB40F2AF
:104440000912044B1A800CB1034B1C7010BD00BF45
:10445000B4060020460000200000002037B5114BB4
:104460000C461A68104B00219A4205468DF8071039
:1044700001D1002013E00DF107030122532009F0C0
:1044800049FB0028F5D09DF80730E52BF1D12A78BB
:10449000064B01201A70064B2360064B636003B085
:1044A00030BD00BF54010020001BB700B40600203F
:1044B000F9430008194300081FB504466B4606225D
:1044C0000221182009F026FB9DF801309DF80020FC
:1044D0001B0203EB9203ADF808309DF803309DF802
:1044E00002201B0203EB9203ADF80A309DF8053061
:1044F0009DF804201B0203EB9203ADF80C30044B33
:1045000021461A7802A80AF0E9FB04B010BD00BFEA
:104510000100002010B5044608220F21182009F0E0
:10452000EFFA0E221021182009F0EAFA034B4FF49B
:1045300080521A800CB1024B1C7010BD4600002046
:104540000100002037B5002402AB054603F8014DF9
:1045500001222146182009F0DDFA50B19DF80730FC
:10456000FB2B11BF2046044B01202B6004BF034BE3
:104570006B6003B030BD00BF15450008B9440008AA
:104580002DE9F041334B344F1B887C893A891C1B41
:104590005443E313B7F912400A26E202B7F9144074
:1045A000B7F902C01C4492FBF4F44CF250321C44A4
:1045B0006643FC61A4F57A6404FB04F5B7F90430A2
:1045C00004FB0CFCB7F90E805C43B7F90C302D13DB
:1045D00005FB08F85D432D1405EB64340234A41088
:1045E000FB8804F5004463434FEAEC2CB7F9004024
:1045F000DD0BB7F920E0194B0CEBE82808EB840839
:1046000008FA0EF81C6808F10208A4EBA80442FAA4
:104610000EF262434EBFB2FBF5F35400B4FBF5F368
:1046200040F6DE3548BF5B001A12524305FB02F428
:104630000B4A083602FB03F5221402EB254202F670
:10464000CF62361103EB221300B1036001B10E609B
:10465000BDE8F081E6060020BC060020E006002050
:1046600043E3FFFF114B07B51B781BB9104A1388B2
:104670000133138001AB0322F621772009F04AFAB7
:104680009DF805309DF804201B0243EA02439DF883
:1046900006201A43074BB3F92030C3F1080322FA6E
:1046A00003F3054A136003B05DF804FBB60600206F
:1046B000B8060020BC060020E00600200C4B07B521
:1046C0001B781BB90B4A13880133138001AB0222FC
:1046D000F621772009F01EFA9DF804209DF8053098
:1046E00043EA0223044A138003B05DF804FB00BFD1
:1046F000B6060020B8060020E6060020064B002182
:1047000093F82020054B92013432197002F0FC021C
:10471000F421772009F0F4B9BC060020B606002089
:10472000034B00221A70F4212E22772009F0E8B9F9
:10473000B606002010B54FF480400AF057FD01285E
:10474000044605D14FF480400AF05EFD014B1C7019
:1047500010BD00BFB60600202DE9F0476B4B8CB0B2
:104760001A686B4B05469A4200F0CB80DFF8BC918B
:1047700099F80070002F40F0C580DFF8B481022660
:1047800010234FF4005A02A940464FF480448DF89C
:104790000B608DF80A30ADF808A008F09BFE0423EA
:1047A00002A940468DF80A30ADF8084008F092FEA4
:1047B0000E213046C8F810A008F0C7FE01260823D5
:1047C00004A804948DF815308DF814708DF81660D7
:1047D0000AF0D2FC28238DF80C3003A80F238DF8A3
:1047E0000D308DF80E308DF80F600AF031FB14207B
:1047F00009F027FA0DF107033246D021772009F09E
:1048000089F99DF80730434C0322552BE375228428
:1048100074D10DF107033246D121772009F07AF9DE
:104820009DF80730AA2103F00F021B092276637658
:10483000162206AB772009F06DF99DF818209DF837
:104840001930374643EA022323809DF81A209DF849
:104850001B3043EA022363809DF81C209DF81D3025
:1048600043EA0223A3809DF81E209DF81F3043EAEF
:104870000223E3809DF820209DF8213043EA0223A3
:1048800023819DF822209DF8233043EA022363818F
:104890009DF824209DF8253043EA0223A3819DF84A
:1048A00026209DF8273043EA0223E3819DF8282043
:1048B0009DF8293043EA022323829DF82A209DF89F
:1048C0002B3043EA022363829DF82C209DF82D3083
:1048D00043EA0223A38241F270732B8046F67813D9
:1048E0006B800D4B89F800606B600C4BAB600C4B20
:1048F000EB600C4B2B610C4B6B6103E0C8F814A010
:1049000000E0002738460CB0BDE8F08754010020D5
:10491000001BB700BC06002021470008BD46000868
:10492000FD4600086546000881450008E4060020B1
:10493000001001402DE9F04F4F4A504D14686B892B
:104940002A89A4EB032482FB0423AE884FEAD21AFF
:104950004AEA436A864630041AEB000AE8884FEABE
:10496000E31B8C464FF000014BEB010B80FB040175
:104970006A880B12D603020A42EA0162A9899219D7
:1049800081FB04454FEAD4564FF0000746EA45261E
:104990007B4116F5FA604FEAE55747F10001B0F5A3
:1049A000FA6F71F1000449DA4FF00508A6FB0845DB
:1049B00008FB075504FB07F806FB0588A4FB064522
:1049C00045445FEA65094FEA3408BAEB080A4FEA42
:1049D000940848EA85782A4C6BEB090B4FEAA50945
:1049E000B2EB080263EB09034FF0FF35A04271EB15
:1049F000050423DA40F6AC54002536196F4106FB56
:104A000007F4A6FB066707EB4407C6F100086FF042
:104A1000060404FB0788A6FB04451AEB040A454478
:104A20004FF00B084BEB050BA6FB084508FB0755A1
:104A30006D104FEA3404121B63EB0503114C26681A
:104A4000A6FB024506FB0355620D42EAC5226B1523
:104A5000B2EB0A0A63EB0B0B4FEADA3343EA4B4340
:104A6000BEF1000F01D0CEF80030BCF1000F01D034
:104A7000CCF80000BDE8F08FEC060020F006002026
:104A800024FAFFFFE806002007B5032201AB00214E
:104A9000772009F03FF89DF805309DF804001B02CF
:104AA00043EA00439DF80600184303B05DF804FB99
:104AB00008B5FFF7E9FF014B186008BDE8060020C4
:104AC00008B5FFF7E1FF014B186008BDEC060020B8
:104AD00001224821772009F013B8012258217720BC
:104AE00009F00EB8454BF7B51A68454B04469A4293
:104AF0000FD0444D02234FF400568DF8073001A922
:104B000010232846ADF804608DF8063008F0E2FC6A
:104B10006E610A2009F095F80DF103030122A0212E
:104B2000772008F0F7FF002854D001221E217720BB
:104B300008F0E6FF00254FF42F6009F077F82E46C5
:104B4000314FA5F1600101AB0222C9B277208DF887
:104B500004608DF8056008F0DDFF9DF804209DF8E5
:104B60000530294943EA0223EB530235102DE8D1E1
:104B7000CA89012302F00F0602F47F42CA81002095
:104B800031F810500130002D18BF00230828F7D14C
:104B900003BB184610F0010F4FEA600504D011F86E
:104BA00015506B40082504E031F8155083EA1523B1
:104BB000F8E71F0448BF83F4C053013D4FEA4303A5
:104BC000F7D101301028E5D1C3F3033332439E42BD
:104BD000CA8101D000200EE042F21073238063806E
:104BE0000A4B012063600A4BA3600A4BE3600A4B47
:104BF00023610A4B636103B0F0BD00BF5401002084
:104C0000001BB70000100140F0060020DB4A00083E
:104C1000C14A0008D14A0008B14A000835490008D5
:104C20000E4B0F4A9B68128810B51A420D4C03D0E8
:104C300008F0DCFF20600BE008F0D8FF2368984202
:104C400006D9C01A3B2390FBF3F0074A12681060A4
:104C5000064BBDE8104018680AF0D6BA000C0140B7
:104C60000407002008070020140700201007002078
:104C7000FFF7D6BFFFF7D4BF2DE9FF412B4B2C4FD9
:104C80002C4C2D4E2D4D40B1012811D102223A80DD
:104C9000226018803070072209E04FF480721A8079
:104CA0004FF400723A8022600922327017222A7073
:104CB0001B884FF01008ADF8043001A902232048EA
:104CC0008DF807308DF8068008F004FC3B881C48FE
:104CD000ADF8043004230DEB03018DF8063008F025
:104CE000F9FB3178012008F030FC20680AF08CFADA
:104CF000236802A80293012400238DF80C308DF85C
:104D00000E408DF80D800AF037FA2B785AB203F076
:104D10001F039C400B4B520943F8224008F080FFD0
:104D2000094B3C38186004B0BDE8F081180700203A
:104D300004070020100700200D0700200C070020AA
:104D4000000C014000E100E00007002038B50446F7
:104D500008F066FF084A13683C3398420BD3074BB0
:104D6000074D1C602B88074C106023610B2008F056
:104D70005DFF2B88636138BD000700201407002009
:104D800018070020000C014037B5002402AB05468F
:104D900003F8014D01220A211E2008F0BBFE50B18C
:104DA0009DF80730482B03D125B1044B1D7001E05D
:104DB000204600E0012003B030BD00BF10000020FD
:104DC00030B585B0062205466B4603211E2008F04B
:104DD000A1FE9DF801309DF800001A4C43EA002026
:104DE00000B2FEF743FF2168FEF794FFFFF758F982
:104DF0009DF80330ADF808009DF8020043EA00205A
:104E000000B2FEF733FFA168FEF784FFFFF748F911
:104E10009DF80530ADF80C009DF8040043EA002031
:104E200000B2FEF723FF6168FEF774FFFFF738F961
:104E3000054BADF80A001A78294602A809F04EFF82
:104E400005B030BD04000020100000202DE9FF4710
:104E5000674B684A1B6893420DD14FF48053ADF8FD
:104E6000043002238DF8073004238DF806300DEB53
:104E70000301614808E0614A934207D104A94FF455
:104E800080435F4821F80C3D08F024FB322008F0F5
:104E9000D8FE112200211E2008F032FE60220121DE
:104EA0001E2008F02DFE642008F0CBFE002402A88E
:104EB000FFF786FF27462646DFF85491DFF8388152
:104EC0000A25012202211E2008F01AFE322008F0D5
:104ED000B8FE02A8FFF774FFBDF90A20BDF908105B
:104EE00017448A42A8BF0A46BDF90C300C449342CD
:104EF0001E44A8BF13464B450ADBD8F80C30013DD1
:104F000083F02003C8F80C30DBD14FF0010801E03A
:104F10004FF00008122200211E2008F0F1FDDFF8FA
:104F2000F0A0DFF8D4900A25012202211E2008F00B
:104F3000E7FD322008F085FE02A8FFF741FFBDF92A
:104F40000A20BDF90810BF1A8A42A8BF0A46BDF957
:104F50000C30641A9342A6EB0306A8BF13465345D0
:104F600008DBD9F80C30013D83F02003C9F80C3080
:104F7000DAD101E04FF000082046FEF777FE014647
:104F80002048FEF77BFF204D20F000402860384687
:104F9000FEF76CFE01461B48FEF770FF20F0004054
:104FA00068603046FEF762FE01461848FEF766FF6D
:104FB00020F00040A860702200211E2008F0A0FD13
:104FC000202201211E2008F09BFD002202211E202C
:104FD00008F096FD642008F034FEB8F1000F04D10B
:104FE0004FF07E532B606B60AB6004B0BDE8F08780
:104FF0005401002000127A00000C0140001BB70091
:105000000010014000406F460400002001C05E46D1
:1050100001F0FFFF1FB504466B46062201211C204C
:1050200008F078FD9DF801309DF80020042143EA46
:10503000022242F38D0292FBF1F29DF80230ADF8AC
:1050400008209DF8032002A842EA032242F38D02C1
:1050500092FBF1F29DF80430ADF80A209DF805208E
:1050600042EA032343F38D0393FBF1F3ADF80C30D5
:10507000034B21461A7809F031FE04B010BD00BF81
:105080001100002037B505462023ADF80430042375
:105090000DEB030102241C488DF806308DF8074003
:1050A00008F018FA00222A211C2008F029FD2246C7
:1050B0000E211C2008F024FD03220F211C2008F0E3
:1050C0001FFD12222B211C2008F01AFD22462C2144
:1050D0001C2008F015FD01222D211C2008F010FDD8
:1050E00000222E211C2008F00BFD05222A211C2065
:1050F00008F006FD054B4FF480721A800DB1044B89
:105100001D7003B030BD00BF000801404600002004
:105110001100002013B500238DF807300E4B044614
:105120001A680E4B9A4201D1002013E00DF10703DB
:1051300001220D211C2008F0EDFC0028F4D09DF880
:1051400007302A2B01D01A2BEED1054B012023600A
:10515000044B636002B010BD54010020001BB70077
:10516000855000081550000813B50222044601AB13
:105170001B21682008F0CEFCBDF804304FF48C727F
:105180005BBA9BB203F54E53103393FBF2F3233318
:10519000238002B010BD00001FB504466B460622F6
:1051A0001D21682008F0B6FC9DF801309DF8002014
:1051B000042143EA022212B292FBF1F29DF802307E
:1051C000ADF808209DF8032002A842EA032212B29B
:1051D00092FBF1F29DF80430ADF80A209DF805200D
:1051E00042EA03231BB293FBF1F3ADF80C30034BFF
:1051F00021461A7809F072FD04B010BD130000209A
:1052000010B50446192008F01CFD00221521682065
:1052100008F076FC10B9032008F0AEFD0D4B162106
:105220001A78682042F0180208F06AFC0022172160
:10523000682008F065FC01223D21682008F060FC30
:1052400001223E21682008F05BFC0CB1024B1C706F
:1052500010BD00BF120000201300002038B5054625
:1052600019200C4608F0EDFC00221521682008F0FA
:1052700047FC18B3124B622C2B60124B6B60124B25
:10528000AB60124BEB60124B0FD004D80A2C12D03B
:10529000142C0ED00BE0BC2C04D0B4F5807F06D1CA
:1052A000002209E00120187038BD022204E0032228
:1052B00002E0042200E005221A70012038BD00BF80
:1052C00001520008995100086951000818449231B0
:1052D00012000020064B1A78064B12B14FF4FF6201
:1052E00001E04FF480521A8008B1034B18707047E8
:1052F0001A07002046000020140000201FB50446B5
:105300006B4606224321682008F004FC9DF801301A
:105310009DF80020042143EA022212B292FBF1F22E
:105320009DF80230ADF808209DF8032002A842EA5B
:10533000032212B292FBF1F29DF80430ADF80A207C
:105340009DF8052042EA03231BB293FBF1F3ADF86D
:105350000C30034B21461A7809F0C0FC04B010BD94
:10536000160000201FB504466B4606223B2168202C
:1053700008F0D0FB9DF800209DF80130214643EA5B
:105380000223ADF808309DF802209DF8033002A8F2
:1053900043EA0223ADF80A309DF804209DF8053059
:1053A00043EA0223ADF80C30024B1A7809F096FC60
:1053B00004B010BD1400002013B54FF40053ADF835
:1053C000043002238DF8073004238DF806301E4B7D
:1053D0001E4A1B680446934202D101A91C4804E0FE
:1053E0001C4A934203D11C4801A908F073F880229B
:1053F0006B21682008F084FB052008F022FC0022C5
:105400001921682008F07CFB03226B21682008F03A
:1054100077FB02223721682008F072FB0F4B1A211C
:105420001A78682008F06CFB18221B21682008F00D
:1054300067FB10221C21682008F062FB0CB1084BAE
:105440001C7002B010BD00BF5401002000127A0091
:10545000000C0140001BB7000010014015000020A7
:10546000160000202DE9FF41074623200D46144673
:105470001E4608F0E6FB0DF10703012275216820A6
:1054800008F048FB00286AD09DF80780B8F1680F43
:1054900064D10622114602AB404608F03BFB9DF862
:1054A0000D10890001F004029DF80B10490001F075
:1054B000020342EA03019DF8092002F001030B43B5
:1054C0000AD05BB2012B01D1012202E0022B0FD1E5
:1054D0000022244B1A7012E00DF1070301220C2167
:1054E000404608F017FB9DF8073013F00F0303D177
:1054F000052008F041FC02E0042BE9D1E4E71A4B57
:105500003B601A4B7B601A4B2B601A4B6B601A4B3B
:10551000EB6016B1134B1B783370142C174B15D05E
:1055200004D8052C16D00A2C12D00DE0BC2C08D0C3
:10553000B4F5807F03D0622C06D102220BE000225A
:1055400009E0012018700AE0032204E0042202E0CE
:10555000052200E006221A70012000E0002004B0BD
:10556000BDE8F0811A070020D552000865530008F5
:10557000B9530008FD52000818449231150000206C
:105580001FB504466B460622A821682008F0C2FA1F
:105590009DF801309DF80020042143EA022212B256
:1055A00092FBF1F29DF80230ADF808209DF803203F
:1055B00002A842EA032212B292FBF1F29DF80430F3
:1055C000ADF80A209DF8052042EA03231BB293FBA5
:1055D000F1F3ADF80C30034B21461A7809F07EFB4D
:1055E00004B010BD1700002010B50446642008F078
:1055F00028FBF0222321682008F082FA10B903204A
:1056000008F0BAFB052008F01CFB064B20211A7895
:10561000682042F00F0208F073FA0CB1024B1C70C4
:1056200010BD00BF1B0700201700002037B505463E
:1056300019200C4608F005FB0DF1070301220F218C
:10564000682008F067FA9DF80730D32B15D10C4B72
:105650004E2C2B600B4B6B600B4BEB600B4B06D057
:105660005D2C08D0362C14BF0022402200E080229E
:105670001A70012002E0C022FAE7002003B030BD1A
:10568000E955000881550008DDE9A7311B07002016
:10569000074BA1F57A7153F820301A689B8859435B
:1056A0004FF47A7391FBF3F189B21180704700BF18
:1056B00014080020024B53F820301B6819807047F3
:1056C000140800202DE9F04F90469B46444F0501F9
:1056D0007C5987B00A4607EB050A4146204600F090
:1056E00015FBDAF80830DAF80400ADF808301823B2
:1056F0008DF80A3002A902238DF80B30019307F0D0
:10570000E9FE02A89AF80CA00AF0BDFA7022019BEB
:10571000344EADF808200122ADF80A20ADF8103063
:1057200000224FF4807306EB0509ADF80C20ADF8AC
:105730000EB0ADF81430BAF10C0F2BD8DFE80AF038
:10574000072A2A2A102A2A2A192A2A2A220002A9E2
:1057500020460AF091F9082120460AF0CBFA19E018
:1057600002A920460AF0CCF9082120460AF0CAFA1C
:1057700010E002A920460AF007FA082120460AF0A4
:10578000CBFA07E002A920460AF040FA0821204699
:105790000AF0CAFA2F44BB7B1BB1012120460AF054
:1057A00090FA012120460AF080FABAF10C0F10D8C5
:1057B000DFE80AF0070F0F0F090F0F0F0B0F0F0F86
:1057C0000D00343404E0383402E03C3400E040346E
:1057D000745148463544A5F8048007B0BDE8F08F01
:1057E0008C5901082C0700201A4B10B51A88198013
:1057F00040F68C23891A89B29942174B02D90022AC
:105800001A7010BD40F2DA50A1F2EF2292B2824239
:1058100018D81A78072A15D81048032A20F8121029
:105820000F4809D80F4C24888C4205D2012101FA77
:1058300002F201780A43027002780F2A02BF084A76
:10584000002111701A7801321A70074B00221A8059
:1058500010BD00BF44080020690800201C0700207C
:105860006808002018000020100C00207FB50446B6
:105870000E46154601A80AF010FA0123ADF80830CB
:1058800001A900232046ADF80460ADF80650ADF83C
:105890000A30ADF80C300AF081FA04B070BD000097
:1058A00038B5124B00010344DA79114C52B9012288
:1058B000DA7119812318197B20580222BDE838407B
:1058C000FFF7D4BF1A899D795981891A094A89B28B
:1058D00022F8151000259981DD712318197B2A46BD
:1058E0002058FFF7C3FF044B1D8038BD2C07002054
:1058F0008C5901081C070020100C00202DE9F743EB
:1059000007468946DFF85480060106EB0804A368C1
:10591000114DADF8043035442823AA718DF80630B6
:1059200001A9022360688DF8073007F0D3FD217BC1
:1059300056F808000022FFF799FF204601224FF693
:10594000FF7100F007FA20464A46394600F0BFF9D9
:10595000284603B0BDE8F0832C0700208C590108CD
:10596000028A4D4B2DE9F0471A8083794278002B4B
:1059700004460CBF0023022302B10133474A484FBB
:1059800052F82350DFF83C81DFF83C916E1E0D3554
:1059900016F8012FFF2A02F00F0002F0F00309D1E0
:1059A000404A414B1A602289B2F5FA7F70D93F4ACA
:1059B0001A606DE0A17811B1811E012965D9E178E5
:1059C00011B1011F032960D9E17909B188425CD086
:1059D00012F0300F03D02278002A08BF002322796A
:1059E00032B1A27922B9A0F10802012A98BF80231E
:1059F00062792AB1A2791AB9021F032A98BF8023BB
:105A0000DA0607D500222A49FFF778FF294B08223A
:105A10001A703AE09A060CD5DFF898A026499AF851
:105A20000020FFF76BFF9AF8003001338AF800304E
:105A30002BE05A0618D5214B228993F800A0B2F525
:105A4000FA7F8CBF082101210AF1010E83F800E0E2
:105A500008FB01F3B3FBF2F2A38992B2FFF732FE27
:105A6000174B43F82A0010E01B060ED5628997F801
:105A700000A098FBF2F20AF101033B7092B2E389B5
:105A80000121FFF71FFE49F82A00B54280D187E7C0
:105A90000020BDE8F08700BF180000205C59010815
:105AA0000E080020B5560008100800209156000886
:105AB000E95700080C080020A15800080D08002034
:105AC0001408002040420F0048080020034B1B78B8
:105AD000834202D9024B1B68184770470D0800200B
:105AE00010080020044B1B78834281BF034B53F8FE
:105AF00020301B68198070470E08002048080020DD
:105B0000014B33F8100070471C070020F8B504461D
:105B10000D461646114B9B89EEB115B12F78013514
:105B200000E0FF2702210D4809F0E6FE0028F9D029
:105B300039460A4809F0DBFE0121084809F0DCFE7D
:105B40000028F9D0054809F0D4FEC0B20CB120708D
:105B50000134013EE0E70120F8BD00BF00380040FD
:105B60002DE9F047012188B04FF4804009F00AFE8A
:105B700001214FF4804009F01DFE344D18238DF8AB
:105B800002304FF42043ADF8003069460323284625
:105B90004FF004082E4F8DF8033007F09BFC4FF4B4
:105BA000804369462846ADF800304FF480564FF0E8
:105BB000100A8DF8028007F08DFC69462846ADF882
:105BC00000608DF802A007F085FC384609F032FE2F
:105BD0004FF48273ADF80E304FF40073ADF8163009
:105BE00007230024ADF81C304FF00109022303A95C
:105BF0003846ADF81230ADF80C40ADF81040ADF8B5
:105C00001A40ADF81490ADF818A009F045FE4946C9
:105C1000384609F060FE9F238DF804308DF805406A
:105C20008DF806408DF8074042466E610DEB080185
:105C300002A8FFF76BFF2E619DF80900A0F1EF03AA
:105C40005842584108B0BDE8F08700BF000C014041
:105C500000380040F0B50E4F0025ECB257F8246034
:105C60000135B042F9D1A4000A4FE4B20025E8B2F0
:105C70003E5C0135B142FAD12044C0B20F2805D8AC
:105C8000054C04EB0010836001710273F0BD00BF8E
:105C90006C5A01087C5A0108E02400200C2915D810
:105CA000DFE801F0071414140A1414140D1414146A
:105CB00010000122022107E00122042104E0012258
:105CC000082101E0012210210AF012B8704710B536
:105CD000044613460A46017B0068FFF7BBFF217BA1
:105CE0002068BDE81040FFF7D9BF07B500238DF845
:105CF00004008DF8053001A801238DF806308DF8D9
:105D0000073009F0A5F803B05DF804FB7FB516462F
:105D1000054601A80C4609F0ADFF0C4B013C03FB06
:105D200006F20B4B01A91B682846B3FBF2F20023D5
:105D3000013AADF80840ADF80420ADF80A30ADF8EE
:105D4000063009F04FFE04B070BD00BF40420F00A6
:105D50005801002010B504460068FFF7D7FF2068FF
:105D6000012109F0A2FF607BBDE81040FFF7BDBF35
:105D700030B50B4D0022D3B255F823400132A0427A
:105D8000F9D19B00074DD8B20022D3B2EC5C0132AE
:105D9000A142FAD103440448DBB200EB031030BD4A
:105DA0006C5A01087C5A0108E024002070B50221D9
:105DB00004460AF098F801280CD1204602210AF086
:105DC0009DF800212046FFF7D3FF054620460AF044
:105DD0007DF837E0042120460AF085F801280CD12F
:105DE000204604210AF08AF804212046FFF7C0FF6C
:105DF000054620460AF06DF824E0082120460AF006
:105E000072F801280CD1204608210AF077F8082101
:105E10002046FFF7ADFF054620460AF05DF811E089
:105E2000102120460AF05FF8012812D110212046E7
:105E30000AF064F80C212046FFF79AFF0546204639
:105E40000AF04DF8AB6823B10146287BBDE87040ED
:105E5000184770BD0148FFF7A9BF00BF002C0140E3
:105E60004FF08040FFF7A2BF0148FFF79FBF00BF80
:105E7000000400400148FFF799BF00BF0008004040
:105E8000014B33F8200070476C080020034B0022C0
:105E9000DA6008B1024B0360704700BF882A002017
:105EA000815E0008072802BF034B01221A70034BD2
:105EB00043F82010704700BF8C0800206C080020B9
:105EC000034B187818B1034900220A801A707047F2
:105ED0008C080020100C00201A481B490268006042
:105EE0008A4219D0002103E0184B5B58435004311B
:105EF0001748184B42189A42F6D3174A02E000237B
:105F000042F8043B154B9A42F9D308F025FF0EF0F6
:105F1000C7FE03F0C3FAFEE7114E092030601148B6
:105F2000016821F070610160410201600E4C18208F
:105F300020600E490E4808600E48D0F800D0406836
:105F400000470000F04F0020EFBEADDED88401080E
:105F5000000000209406002094060020803D0020D0
:105F60001810024004000140140C0140000C0140D4
:105F70004434434400F0FF1FFEE70000F8B5174C1F
:105F800006462378274673B907F04AFE144D2B685E
:105F90003233984207D30120207007F019FF07F031
:105FA0003FFE2860F8BD3B78B3B107F039FE0C4CDA
:105FB0002368334498420FD3084B0020187007F031
:105FC00007FF07F02DFE074A206013780BB1013B55
:105FD0001370054B01221A70F8BD00BF8E08002017
:105FE00094080020D20C00208F08002037B5234DE4
:105FF0008DF806202A788DF8073002AB8DF8040062
:106000008DF80510134413F8043C443BDBB20A2B13
:106010002CD81B49022A31F8134003D814B120466A
:10602000FFF7ACFF2B78022B0BD907F0F9FD154BCE
:10603000001B1B68984204D9104A00231370124AAF
:106040001370124B1A78012A00D0A4B92A780020C4
:10605000022A187098BF09490D4B9CBF01320A7083
:10606000187003B0BDE8304007F0B2BE022A4FF00E
:106070003204D7D8D3E703B030BD00BF9208002068
:10608000805A010894080020D20C00208F080020BC
:106090008E0800202DE9F0413F4D06466B7B3F4FB7
:1060A00003B101234FF400703B7001F0CFF93C4C79
:1060B000F8B13C4B3C481A8890F8AE3011B203EB73
:1060C000830E714513DDDFF8E8E09EF801E0BEF1D4
:1060D000000F0AD090F8AF004FF0010E034403EB1D
:1060E0008303994284F800E001DD0223237002B9A2
:1060F0002270202001F08AF960B1AA7A2B4B12B9E4
:10610000254AD27A22B12A4AD27A0AB9012200E07B
:1061100000221A702378022B04D14E224423114608
:106120004C2005E0012B07D14D2319464C2253206A
:10613000BDE8F041FFF75ABF1C4B1B78012B02D181
:106140004D234E2211E03B78012B04D153224D23E5
:1061500011461046ECE7042E03D14D22442311468C
:10616000E5E7022E04D144234D2253210846DFE700
:10617000012E03D144234E224D21D8E70D4B187830
:1061800020B1BDE8F0413220FFF7F8BE0A4B18708D
:10619000BDE8F04107F01CBE522B00209008002003
:1061A0008D080020100C0020E02500209108002020
:1061B000EE2A0020D20C00208E08002070B5064682
:1061C000B6FBF2F40846154614B12046FFF7F6FF79
:1061D00005FB1464024B1B5D00F8013B70BD00BF62
:1061E000105C01082DE9F04102780346202A00F1F5
:1061F0000100F9D0092AF7D02D2A02D103463F4DDC
:1062000004E02B2A08BF03464FF07E551C460026AB
:10621000234614F8012BA2F13007F9B209290CD852
:1062200037493046FDF776FD06463846FDF71EFD38
:106230003146FDF767FC0646EAE72E2A17D1304FB4
:10624000234614F8010B3038C2B2092A0FD8FDF7E3
:106250000DFD3946FDF712FE01463046FDF752FCB2
:10626000274906463846FDF755FD0746E8E71A7800
:1062700002F0DF02452A35D15A782D2A02D10233A5
:10628000012704E02B2A14BF013302330027013B0E
:1062900000240A2013F8012F303AD1B2092902D87C
:1062A00000FB0424F6E7B4F59A7F28BF4FF49A74F4
:1062B000A0464FF07E50B8F1070F05D91149FDF700
:1062C00029FDA8F10808F6E704F0070424B10C49F9
:1062D000FDF720FD013CF9E737B101463046FDF7F7
:1062E000CDFD05E04FF07E5001463046FDF712FD32
:1062F00001462846FDF70EFDBDE8F081000080BF95
:106300000000204120BCBE4C38B5054D441E14F899
:10631000011F19B1286807F09CFFF8E738BD00BFDE
:10632000882A00200148FFF7EFBF00BF355C010855
:1063300038B50748FFF7E8FF064D00242B196159CF
:106340005A6805480C3408F08BFBC02CF6D138BDD8
:10635000635C0108345B0108795C01082DE9F041B8
:1063600007F05EFC264B274A4FF47A71B0FBF1F13F
:106370001B781278244808F073FB01F061F8234B76
:1063800005461968224B2348B1FBF3F108F068FB7E
:10639000214E00240127E3B256F8231041B107FA39
:1063A00003F32B4202D01D4808F05AFB0134F2E7F8
:1063B000022001F02BF898B1194C1A4B22781A4898
:1063C00053F8221008F04CFB2378022B08D1174B0E
:1063D00017481B7F002B14BF6F216E2108F040FB74
:1063E0001448FFF791FF144B1C8807F0EBFB214684
:1063F000BDE8F04102464FF45F73104808F030BB2F
:106400003C0000203C2B0020815C0108580100204A
:1064100040420F00BF5C0108E0690108DD5C010833
:10642000500D0020F45B0108E15C0108882A00207F
:10643000EB5C0108257F0108EA0C0020EF5C0108F5
:1064400038B50C68054620460EF086FD214602460A
:106450002868BDE838400EF0ADBD000008B5094819
:10646000FFF752FF0121002000F068FF0648FFF708
:106470004BFF0A2007F0E5FBBDE80840002007F0CD
:1064800097BC00BF215D01082B5D0108F0B585B008
:1064900004460EF061FD082827D1214D621EE01D43
:1064A00012F8013F29681944497801F003010229D3
:1064B00008BF203B90421370F2D1254604F1080733
:1064C00015F8016B174831460EF080FC20B13146BB
:1064D00028460EF07BFC18B11348FFF715FF1CE0AF
:1064E000AF42EDD1204600F087FE1048FFF70CFFC9
:1064F0000F4C0C4800231A1992F8082104A90A44E9
:10650000195C0133082B02F80C1CF4D1002301A9FB
:1065100008488DF80C3008F0A3FA05B0F0BD00BFB4
:1065200060020020207201083A5D01085A5D0108EE
:10653000A42600207C5C010808B501F05DFBBDE8E5
:10654000084001300CBF02480248FFF7DDBE00BF23
:106550006F5D0108955D01082DE9F84306460EF0D0
:10656000FBFC044601F016F9054694B92A48FFF7EA
:10657000CBFE2A4E012756F8241041B107FA04F346
:106580002B4202D0264808F06BFA0134F3E7254885
:1065900022E02246244930460EF00CFD58B923482B
:1065A000FFF7B2FE224C54F8041F0029EFD01C481C
:1065B00008F056FAF7E73378DFF860902D2B03BF29
:1065C000013604F1FF344FF001084FF000080025B8
:1065D00059F8257027B91748BDE8F843FFF794BE6E
:1065E0002246394630460EF0E5FC98B90120A84015
:1065F000B8F1000F03D001F0C5F80F4802E000F039
:106600002FFF0E48FFF780FE3946BDE8F8430C48DF
:1066100008F026BA0135DBE7B35D0108985A010896
:10662000DD5C0108257F0108EB670108C65D0108F4
:10663000945A0108DB5D0108F55D0108FF5D010862
:106640007C5C010810B504460848FFF75DFE084A67
:1066500000231370074A1360074A137003F0B0F861
:106660002046BDE81040FFF7F9BE00BF085E0108F4
:1066700098080020C8080020790E002008B50848B6
:10668000FFF742FE012000F0F3FE0648FFF73CFE54
:106690000A2007F0D6FABDE80840002007F088BBC2
:1066A000205E01082D5D01082DE9F04107460EF03E
:1066B00053FC054638B91B4B1B4A5B791B48013B11
:1066C00052F823102AE00246194938460EF072FCAF
:1066D00018B10024DFF850800CE01648FFF714FED4
:1066E000154C54F8041F19B1144808F0B9F9F8E72B
:1066F000134803E058F8246026B91248BDE8F04179
:10670000FFF702BE2A46314638460EF053FC0134EC
:106710000028EFD13146034B0B485C71BDE8F041D6
:1067200008F09EB9A4260020D85A01083B5E010853
:10673000EB6701084F5E0108D45A0108DD5C0108CF
:10674000257F0108625E01087A5E010838B50446BB
:106750000E4D20460EF000FC10F0FF0F07D10B4B42
:106760000B4893F87813BDE8384008F079B9204613
:106770000EF06AFA022807D8002185F87803084647
:1067800000F0DCFD034CE4E738BD00BFA426002088
:106790008C5E0108B061010870B504460EF0DCFBA8
:1067A00008B9204830E020461F4900240EF0CCFEF6
:1067B0002646254678B12CB1012C06D10EF044FABC
:1067C000064602E00EF040FA054617490020013463
:1067D0000EF0BAFEEEE70B2D05D9BDE870400C2196
:1067E000124808F03DB9012C08DC114B294633F959
:1067F00015201048BDE8704008F032B9A6F57A734C
:10680000B3F57A7F04D90C48BDE8704008F028B988
:1068100032462946094808F023F9054B23F815604C
:1068200070BD00BFA25E01086C7F0108DC5E01083C
:10683000C42A0020025F01081A5F01083C5F0108BA
:1068400038B505460EF088FBC0B258B90446114D64
:10685000214635F8022F1048013408F001F9152CB3
:10686000F6D138BD28460EF0EFF9142804460ADCAC
:10687000202128460EF0AAFA0EF0E6F9074B03EBAA
:106880004403D88738BD15210548BDE8384008F0D5
:10689000E7B800BF1C260020555F0108E025002056
:1068A000615F0108931E232B28BF0A22031EB8BF75
:1068B0002D2010B50C46BCBF01F8010B5842FFF764
:1068C0007DFC00230370204610BD000030B500237E
:1068D00087B00C4600210546039304930593FDF70A
:1068E000D5FB294918B12846FDF70CF902E02846E6
:1068F000FDF706F92549FDF70DFAFDF7D1FB054631
:1069000080EAE0700A226946A0EBE570FFF7CAFF53
:10691000002DACBF20232D2368468DF80C300EF0DF
:106920001BFB012807D130238DF80D308DF80E3078
:106930008DF80F300CE0022805D130238DF80D3092
:106940008DF80E3004E0032804BF30238DF80D309D
:10695000694603A80EF01AFA03A80EF0FDFA0338F0
:10696000C5B22A4603A920460EF04EFB002363550C
:10697000074920460EF00AFA03AB591920460EF0DB
:1069800005FA204607B030BD6F12033A00007A4482
:10699000385D010837B5037904460D46052B34D818
:1069A000DFE803F003060A0D1114836819782DE05F
:1069B000836893F9001029E08368198826E08368CA
:1069C000B3F9001022E0836819681FE08368694604
:1069D0001868FFF77BFF0146124808F041F8F5B14F
:1069E000E068FDF743F96946FFF770FF01460E487E
:1069F00008F036F82069FDF739F96946FFF766FFB8
:106A00000146094808F02CF809E00021074808F081
:106A100027F825B12269E168054808F021F803B09C
:106A200030BD00BFE85C0108E75C01088B5F01082E
:106A3000875F01082DE9F84F81460EF08DFA514D20
:106A4000064628B1012818D199F800302A2B14D114
:106A50004D48FFF759FC002429594C4808F000F82C
:106A600028193146FFF796FF14344948FFF74CFCCC
:106A7000B4F5026FF0D1BDE8F88F3D2148460EF025
:106A8000A5F9002864D0441C20460EF0DDF88246AB
:106A90002046FFF7A7FB804600244FF0140B0BFBAA
:106AA00004F7EE5930460EF057FA31460246484692
:106AB0000EF080FA002843D1324B1F44F868FDF7EE
:106AC000D5F801464046FDF7D7FA002836D0386998
:106AD000FDF7CCF801464046FDF7C4FA70B33979AA
:106AE0001423052918BFD04605291BD8DFE801F07B
:106AF000030309090F1503FB04539B6883F8008007
:106B000010E003FB04539B68A3F800800AE003FB3A
:106B100004539B68C3F8008004E003FB04539B68A4
:106B2000C3F8008031461B4807F09AFF142000FB91
:106B30000450BDE8F84F0021FFF72CBF164803E0D2
:106B40000134682CABD11548BDE8F84FFFF7DCBB2A
:106B500004460C4F2E59494630460EF0E5FB50B125
:106B600031460A4807F07CFF38190021FFF712FF71
:106B7000074807F075FF1434B4F5026FEAD1BDE899
:106B8000F88F00BF006A01088E5F01086D60010880
:106B9000257F0108A35F0108AE5F0108D35F0108EC
:106BA0002DE9FF4759485A4D07F05AFF5948FFF75A
:106BB00047FE6B79584A013B52F82310574807F0BB
:106BC0004FFF00212869FDF739FA00285BD12E46D6
:106BD0000446376900213846FDF730FA00284ED1C7
:106BE000013421464E48D6F814A0D6F81890D6F8AD
:106BF0001C8007F035FF00213846FDF729FA10B157
:106C0000484807F02DFF69463846FFF75FFE01460A
:106C1000454807F025FF00215046FDF719FA10B14D
:106C2000404807F01DFF69465046FFF74FFE0146FA
:106C30003D4807F015FF00214846FDF709FA10B15D
:106C4000384807F00DFF69464846FFF73FFE01460A
:106C5000354807F005FF00214046FDF7F9F910B16E
:106C6000304807F0FDFE69464046FFF72FFE01461B
:106C70002E4807F0F5FE0C2C06F11006A9D1611C78
:106C80002B4807F0EDFE00F085FD0646294C54F830
:106C9000041F21B90C46284F4FF001080BE027488C
:106CA00007F0DEFEF3E708FA04F3334202D024488B
:106CB00007F0D6FE013457F824100029F3D12148FB
:106CC0004B1993F8083104AA13440A5C01310829CE
:106CD00003F8102CF4D1002469461B488DF80840B5
:106CE00007F0BEFE194D6159194807F0B9FE281981
:106CF0000021FFF74FFE14341648FFF705FBB4F5EB
:106D0000026FF0D104B0BDE8F08700BFF05F01086A
:106D1000A4260020B0610108D85A010820600108AB
:106D20002B6001086C7F0108E85C01087C5C0108AD
:106D300033600108945A0108985A01084560010817
:106D4000536001082072010860600108006A0108B0
:106D500069600108257F01082DE9F04188B00646E9
:106D60000EF0FAF8C5B2002D72D17E4C7E48FFF7C6
:106D7000CBFA274600212069FDF760F940BB0135B9
:106D800029467A4807F06CFE04A92069FFF79EFDAA
:106D90000146774807F064FE04A96069FFF796FD95
:106DA0000146734807F05CFE04A9A069FFF78EFD59
:106DB00001466F4807F054FE04A9E069FFF786FD1D
:106DC00001466C4807F04CFE0C2D04F11004D1D1A3
:106DD000002407EB0515A0462746674E039402944E
:106DE0000194243500231036AE4213D056F8101CFF
:106DF0004046FCF787FE56F80C1C80463846FCF7E8
:106E000081FE56F8081C07462046FCF77BFE01234E
:106E10000446E8E71BB1CDF8048002970394574875
:106E2000FFF772FA564E574D002401AB53F8240079
:106E3000554920F00040FDF729F90134002814BF1E
:106E400030462846FFF760FA032CEED14F4871E038
:106E500005224F4930460EF0ADF838B941490022BD
:106E600043181030C0281A61FAD177E0042249494A
:106E700030460EF09FF8044608BB202130460DF046
:106E8000A5FF00286AD0451C28460EF065F8424F41
:106E90005FFA80F857F824600EB940484AE042464D
:106EA000314628460EF086F838B9204602F032FD09
:106EB00031463B4807F0D4FD48E00134EAE730466C
:106EC0000DF0C2FE471E0B2F044643DC2021304646
:106ED0000DF07CFF054640B101352846FFF782F9E9
:106EE000204B24011851012400E0044628462021AB
:106EF0000DF06CFF054640B101352846FFF772F9E9
:106F0000184B013403EB07135861284620210DF07C
:106F10005DFF054640B101352846FFF763F9114B87
:106F2000013403EB07139861202128460DF04EFF32
:106F300018B91C48FFF7E8F910E00130FFF752F9E3
:106F4000084B032C03EB0717F861F2D11648FFF743
:106F500003FF03E00C21154807F082FD08B0BDE8EF
:106F6000F08100BFA42600207B600108A660010814
:106F7000AC6001087C5C0108B8260020B060010804
:106F800073600108776001080AD7233C257F010858
:106F9000BF600108C5600108D85A0108625E010897
:106FA000CA600108DD600108B061010817610108CD
:106FB0002DE9F04F724B89B01A78029342B9704AAA
:106FC000012370481370FFF79FF96F48FFF79CF992
:106FD000DFF8DC916D4CCA46D9F8000006F014FFCA
:106FE000002800F0C980D9F8000006F01BFF09282E
:106FF000014601D03F285CD10027B8463E462568AF
:10700000DFF8A0B10BEB070345B12A4657F80B1088
:107010005F4803930DF0CEFF039B20B916B91E46BF
:10702000984600E098460C37C02FEBD1FEB12B46B6
:10703000D6F800E0D8F800C0DFF854B100221EF8FE
:1070400003001CF80310814202D082B123600EE0DD
:107050005A1C4F4F31B92D2B04D82020F8542260F0
:10706000B95404E00BF8030013460122E7E7236854
:107070000BB1464512D04748FFF746F9464509D8B7
:1070800056F80C0BFFF740F90921DAF8000007F079
:10709000E0F8F3E73C48FFF737F900253C4E23685A
:1070A0009D4299D2715DDAF8000007F0D2F80135FF
:1070B000F5E723685BB9042803D13548FFF7C2FA26
:1070C0005AE00C283ED13448FFF71EF927E00C287F
:1070D000F9D00A2925D13148FFF716F92C4D22683D
:1070E0000023AB5406932E4B102200932D490C2302
:1070F00005A805950DF0ACFD0646F8B100680DF049
:107100002BFF0130B36828449847302200212048E3
:107110000DF0EEFD00232360029B1B7863B31A4839
:1071200009E00D29D7D07F2922D1194A013B00213E
:107130001D482360D154FFF7E7F84DE71B48FFF7E0
:10714000E3F8E2E77F283FF447AFA1F12002D2B293
:107150005E2A3FF641AF13B920293FF43DAF5A1CD8
:1071600022600B4ADAF80000D15407F072F833E7D6
:107170002F2B3FF631AFE8E709B0BDE8F08F00BF35
:10718000790E00203F61010877610108C8080020DE
:10719000980800207C61010881610108257F0108B1
:1071A00041640008345B0108AD6101088C6101088D
:1071B000882A00200E4B1A783A2A16D15A88B2F53E
:1071C0005F7F12D11A79BE2A0FD193F87A2300205B
:1071D000EF2A0CD1074A13F8011B934280EA010001
:1071E000F9D1B0FA80F0400970470020704770472D
:1071F00000F801087CFB0108F8B50546084E094F68
:10720000441E14F8011F51B105480DF0DFFD0028A0
:10721000F7D0801B3844631B80F80831F1E7F8BDD4
:1072200020720108A42600202DE9F84FFFF7C2FFC5
:1072300010B90A2006F0A0FD3A4C4FF45F723A49AB
:107240002046FCF773FF94F878333849022B84BF4B
:10725000002384F8783394F87803354BC42202FB7A
:1072600000111846FCF762FF40F6C41790F8206042
:10727000C57F01462F48002202FB02F3193B7343EE
:1072800003F6C41353436B4393FBF7F320F8123018
:107290000132072AF0D191F821E091F822901FFAEB
:1072A0008EF2B4F8D080B4F8D26002EB8207CEF14F
:1072B000640C52425FFA8CFC7F00C9F1640BC8EB8E
:1072C000060692B200254FF00A0A90B203B2002BD4
:1072D00004DC002814BF7446012400E0644603FB6C
:1072E00003F0644309FB00F090FBF4F45C44634357
:1072F00093FBFAF33B441BB273434FF47A7093FB56
:10730000F0F30D48434420F8153001350A320C2DB6
:1073100092B2DAD1087803F037FBBDE8F84F00F0FD
:10732000E1BB00BFA426002000F80108D027002000
:10733000E0250020D62B0020062B00202F4B3A22E0
:107340002DE9F0411A704FF45F725A80BE221A7113
:10735000EF2283F87A230022074683F87B231C461A
:1073600049B193F87803C42202FB0030244900F5A8
:107370009670FCF7DBFE00231A46E15C0133B3F59F
:107380005F7F82EA0102F8D11C4BDFF87C8083F832
:107390007B23002607F060FF342007F069FF1948BF
:1073A00007F0BCFF042813D1164D05F17843A3F56F
:1073B000FC33E158284607F087FF042805D0013642
:1073C00007F054FF032EE5D102E004354545ECD12A
:1073D00007F04CFF032E02D0FFF7ECFE10B90A2095
:1073E00006F0CAFCFFF720FF37B1BDE8F0410122EB
:1073F00014210F2003F006B8BDE8F081A426002078
:10740000E025002000F801087CFB0108034B1B6805
:10741000184214BF01200020704700BFCC08002094
:10742000024A136818431060704700BFCC08002060
:10743000024A136823EA000010607047CC0800205D
:10744000014B1868704700BFCC080020034B9B68B5
:10745000184214BF01200020704700BFA42600205E
:10746000024A936818439060704700BFA42600202A
:107470002DE9F3470446FFF79DFE10B1002C00F004
:107480006F816B46B84AB94D10685168B84C03C358
:107490004FF45F72002128460DF02AFCC42200211F
:1074A00020460DF025FC3A232B70082003236B7136
:1074B000FFF7D6FF1020FFF7D3FF0220FFF7D0FF22
:1074C0004FF40070FFF7CCFF4FF41673A5F8F030BF
:1074D000FA23A5F8F2302A23A5F8EE304FF4FA7318
:1074E000A5F8F6302B2385F80531212385F80631E0
:1074F00040F24C43A5F8143140F26C73A5F81631F4
:1075000040F27E43A5F8D03040F23A7340F2DC59A5
:10751000A5F8D23040F27E5300264FF00108142027
:1075200004224FF0200E4FF47A7185F8F4E085F8CC
:10753000040185F8102185F87863A5F8F860A5F8AE
:10754000FA60A5F8FC6085F8E26085F8E36085F8EC
:10755000E460A5F8E660A5F8E860A5F8EA6085F8BB
:10756000ED6085F8EC8085F8076185F8296185F87C
:107570002A61A5F8129185F8186185F8196185F8D6
:107580001A81A5F8D410A5F8D63040F2EA53A5F830
:10759000DE104FF4E131C5F820114FF49641C5F8E3
:1075A000241140F6AC51A5F8D83040F2B4534FF056
:1075B0001E0CA981172184F80BC0617584F80CC0DA
:1075C000A1754FF00B0C55212827A5F8DA30E17092
:1075D00032232D2184F805C04FF0080CA5F8DC30CB
:1075E000A5F8E03061732371A07184F810C085F8AC
:1075F0001C6185F81D6185F8286185F81B6185F897
:10760000796326706770A770E675A6732676E673B1
:107610006676A17684F821300723A4F8403015233C
:1076200084F82F30534B4FF00E0C2363524B607491
:10763000502084F807C0E0764FF0640C5A20636352
:107640004E4B20724FF00A0A84F81CC021754FF08F
:10765000780C4121E0774A4884F82010A36384F82D
:1076600012A0677284F80AC084F81E8084F8236030
:1076700084F8246084F8256084F82260A4F844E04B
:10768000A4F84A2026856685E68484F82C2084F8B0
:107690002D7084F82E7084F83C80FFF7ADFDC82370
:1076A00084F8AF304FF49663A4F8B03040F2D93389
:1076B000A4F8B230234684F8686084F8696084F8DE
:1076C0006A7084F86B8084F86C6084F8AEA04FF424
:1076D0007F704FF4FA611DF806200136082EA4F8D9
:1076E0006E00A4F87010A4F8729084F8742004F16D
:1076F0000804F0D1012283F8B42083F8B52083F880
:10770000B620C82183F8BC206422A3F8B810A3F8DF
:10771000BE2014214FF4967283F8BA10A3F8C0204B
:107720001E21282283F8BB10A3F8C22000210023C9
:10773000EA181033C02B1161FAD1002404F59670B9
:10774000C4220B492844C434FCF7F0FCB4F5137F81
:10775000F4D10021084602B0BDE8F047FFF7EEBDC6
:1077600002B0BDE8F08700BFD8580108A426002069
:10777000E02500209A99193FF6287C3F3D0A773F83
:1077800029720108024A936823EA0000906070475A
:10779000A4260020014B9868704700BFA426002053
:1077A00010B5044C00232070236106F039FA6061A3
:1077B00010BD00BF242A002010B5FCF757FA0021A5
:1077C0000446FCF763FC10B10749204602E0064975
:1077D00004F10040FCF752FB0449FCF79BFA0BF064
:1077E000BDFA034B186010BD8096184B35FA8E3CDD
:1077F0001C000020F8B5101A0D461F46FCF736FA9B
:107800000446781BFCF732FA174B079E1968FCF701
:1078100081FA214605462046FCF77CFA29460746B0
:107820002846FCF777FA01463846FCF76BF90BF06F
:10783000DDFC0E49FCF76EFAFCF758FC069B294666
:10784000186004F100400BF03FFB0949FCF762FAB5
:107850000849FCF757F9FCF723FC0028BCBF00F5EA
:107860000C40A0303060F8BD1C0000202C7D8E3F05
:10787000A00CB34500A00C46F8B51C460E461546B4
:10788000FCF7F4F96168FCF745FA3146FCF742FA77
:107890002968FCF737F92860E46806462046FCF7BB
:1078A000FFFB074604F10040FCF7FAFB04463046B4
:1078B000FCF7F6FB3A46214607F0F0F8FCF7D6F95C
:1078C0002860FCF7EDFBF8BD0E49F0B5044600203A
:1078D00002460E4607464FF00A0E8B5C8BB12E2BEC
:1078E00003D101326CB18B181F55B55C0EFB00F053
:1078F000A5F13003092B9CBFA0F13003E818013239
:10790000EBE7F0BD850A00202DE9F0412D4B2E4C10
:1079100093F81C3113B1012B0AD04EE062780C238E
:1079200053432A4AD1582A4B586806F089FA41E055
:10793000274D686806F087FA2E4600283DD0237848
:10794000012B20D106F06CF963690646C31A632B3C
:1079500035D92369042B14D84FF00C0808FB03F326
:107960001A4F6868F95806F06BFA6278686808FB85
:107970000273596806F03CFA23696661013323619A
:107980001BE0022017E023693BB962780C235343C4
:107990000E4A6868D15806F053FA23690A4D8B2BBA
:1079A00008D80C4A7068D15C06F014FA2B690133D0
:1079B0002B6102E00320FFF7F3FE00236360BDE8C4
:1079C000F08100BFA4260020242A00200C730108A7
:1079D000882A00204873010810B51A4C2378013B0F
:1079E000032B2ED8DFE803F002021D06BDE810408D
:1079F000FFF78ABF63680522013363606378013350
:107A0000DBB2B3FBF2F202EB82029B1A637006F068
:107A100007F90D4A002313700C4AA060D3720120AD
:107A20000BE006F0FDF8A368C01A40F6C4139842B4
:107A300007D92020FFF7FCFC0420BDE81040FFF729
:107A4000AFBE10BD242A0020962B0020EE2A002075
:107A500010B50B4CE37A8BB10A4B1B78042B0DD974
:107A6000094A0A4B1068526818605A60FFF7A4FE72
:107A7000074B1A88074B1A800123237310BD00BFE0
:107A8000EE2A0020962B0020782B0020482B002087
:107A9000202C0020AA09002070B50D480D490E4E7B
:107AA0000E4D0F4C0023002233802B802380026078
:107AB000436082600A604B608A6073806B80638081
:107AC00042618361C2614A618B61CA6170BD00BF5E
:107AD000D00800205C090020E60C0020022B0020CA
:107AE0001E2B002070B5204C204D6079FCF7BAF8B1
:107AF0001F49FCF7C3F92860E07BFCF7B3F81C4989
:107B0000FCF7BCF91B4E6860EE60A079FCF7AAF8A0
:107B10001949FCF7B3F9194D2860207CFCF7A2F84D
:107B20001349FCF7ABF96860A07EFCF79BF8144999
:107B3000FCF7A4F9EE60A860E079FCF793F80E4931
:107B4000FCF79CF90F4D2860607CFCF78BF8084926
:107B5000FCF794F96860E07EFCF784F80849FCF7CC
:107B60008DF9EE60A86070BDE02500209C0A002021
:107B70000000C8420000FA440000204140090020F3
:107B800000007A44F808002038B505460020FFF7C9
:107B900007FE4FF48070FFF759FCF8B1104C657088
:107BA00006F03EF8002363600E4BA06093F81C3192
:107BB000002B14BF03240124FFF794FF0C2068431B
:107BC000094A234612580949094806F003FC094BA3
:107BD00058600120BDE83840FFF7E2BD38BD00BF66
:107BE000242A0020A42600200C730108C97D000867
:107BF00000440040882A00202DE9F8431A4B1B78E6
:107C0000032B2CD1194D1A4CA8466B680022DA625E
:107C100010236361202363611026686806F0F4F87E
:107C200058B12661D8F80400D8F8007006F0FAF8C8
:107C30000146384606F0CEF8666128680B4F06F01C
:107C4000E3F80028E9D0202697E80102266106F033
:107C5000E9F80146484606F0BDF86661DCE74FF0FA
:107C6000FF30BDE8F88300BF242A0020882A0020C6
:107C7000000C0140F7B50368174C184D23600B68E2
:107C8000174E63600068FFF797FD95E80300154BFA
:107C90000196009394E80C00FFF7ACFD3668124B98
:107CA00060681E606B68114FC01AFBF7DFFF104B56
:107CB0001968FCF72FF8FCF7F3F92A682368786055
:107CC0009B1A3B600B4B1E600B4BB3F8BE200B4B5B
:107CD0001A8003B0F0BD00BF54090020782B0020AB
:107CE000980A0020B00A002084090020A009002082
:107CF0001C00002090090020E025002096090020AB
:107D000044F25063984203DDA0F50C40A038704760
:107D1000034B9842BCBF00F50C40A030704700BF39
:107D2000B0B9FFFFF0B50646244B1D68314611F887
:107D3000017BEB195B7803F0040303F0FF020BB146
:107D40000E46F3E7331A022B09DD10F8013B02EB74
:107D50008202303B03EB420202F0FF02F2E7002313
:107D6000864209D910F8014B03EB8303303C04EB46
:107D7000430303F0FF03F3E72E2F11D10426002065
:107D80000A270C78784305EB040E9EF801E01EF0FC
:107D9000040F1EBF303C01310019013EF1D100E05B
:107DA000002064214843064901FB03030620B3FB7E
:107DB000F0F3044800FB0230F0BD00BF6002002079
:107DC00040420F00809698002DE9F04F9B4B8BB0FE
:107DD00093F81C31C4B2012B00F0D48002D3022BE3
:107DE00040F09085242C08D1954A00231370954AC1
:107DF0001370954A137000F085BD2C2C01D02A2CED
:107E00007ED1904F8E4E914B3A7835780020985421
:107E10008F491A46B5B91B780D70472B67D1537837
:107E2000502B64D19378472B40F05B85D378472B58
:107E300040F057851379412B40F0538501230B7097
:107E400000F04FBD0A78012A3AD1022D05D118461B
:107E5000FFF768FF7F4B186049E0032D07D11B78BF
:107E6000532B44D17B4A13685B4213603FE0042DDF
:107E700005D11846FFF756FF764B586037E0052DC1
:107E800007D11B78572B32D1724A53685B4253603B
:107E90002DE0062D07D11B786F4A302B94BF0023AD
:107EA0000123D37223E0072D04D1FFF70DFD6B4BA7
:107EB00018701CE0092D1AD1FFF706FD684B15E07C
:107EC000022A14D1072D0BD10120FFF7FDFC41F24E
:107ED000184358434FF47A73B0FBF3F0614B05E05D
:107EE000082D04D10120FFF7EFFC5F4B188001350E
:107EF00000232A2C35703B7038D101225B4B58E0AF
:107F00000D2C5A4801D00A2C24D10378EBB14F4AEA
:107F100011785478A1F13003DBB2092B84BFA1F1B1
:107F20003703DBB2A4F130021B01D9B2D3B2092B63
:107F300084BFA4F13703DBB2434A03F00F030B44C1
:107F40001278DBB2D41A63426341002202709BB9FB
:107F500000F0D8BC3B4A13780E2B9FBF591C117000
:107F60003A4AD4540378002B40F0CC84364A137834
:107F70005C40147000F0C6BC354B1B78012B40F000
:107F8000C18454E13A4B1A78082A00F2BB84DFE836
:107F900002F00B05131928377B949E00622C01D147
:107FA000022206E000221A70B52C40F0AB841A7849
:107FB00001321A7000F0A6BC03221A702D4B1C70FF
:107FC0002D4B0BE004221A702A4A2B4913782344C4
:107FD000DBB213700A7813440B70284B1C7000F04E
:107FE00091BC05221A70234A234913782344DBB23B
:107FF00013700A7813440B70214B1C8000F082BC74
:1080000006221A701B4A13781C44E4B214701A4AF0
:1080100013781C4414701A4A138803EB002080B2B2
:10802000B0F5007F83BF00231380114A108088BF02
:1080300013700022134B00F052BC00BFA426002096
:10804000B40A0020AC090020A8090020850A0020FD
:1080500094090020782B0020EE2A0020962B002087
:10806000002B0020222B0020EC0C0020AC0A00206A
:10807000840A0020AD0A0020AE0A0020500900202A
:108080008A0900209C0900204D494E480A78224464
:10809000D2B20A7001780A444B4902700A88C72A92
:1080A0009CBF4A488454013292B20A8048490988E8
:1080B000914240F0278407227BE708221A70404B48
:1080C0001B78A34200F01E840022424B71E700227D
:1080D0001A703C4B1B78A34240F014843E4B1B7833
:1080E000062B3ED005D8022B17D0032B29D000F049
:1080F00009BC122B48D0302B40F00484334B374856
:108100001A79374B102A88BF10221A7019782F4A13
:108110000023344C344D354E44E02C4B344A5968DE
:10812000516099681B6911604FF47A7293FBF2F306
:10813000304A1380304B1A78304BDA720122304BC0
:1081400020E0224A537913F0010303D01379D81E9B
:1081500043424341284A1370002B5BD1274AD37214
:1081600058E01A4AD37A13F0010303D0937AD91E48
:108170004B424B4120490B700BB92049CB7292F80E
:108180002F20204B1A7045E0104B1F4A59699B69FC
:10819000118042F2107293FBF2F31C4A1380012209
:1081A0001B4BEFE78B4235DA177A1F54577A1F556E
:1081B000D77A5F5512F80C7F9F550133F2E700BF65
:1081C000AD0A0020AE0A00209C090020BC09002056
:1081D0008A090020840A002050090020DC2A00209F
:1081E000972B0020672B0020802B0020C42B002021
:1081F000782B0020002B002088090020EE2A002088
:10820000BC0A0020962B0020222B0020EC0C002022
:10821000B80900208F490B78002B00F073838E4B38
:108220001A78002A00F06E8300220A701A708B4CB4
:108230008B4DA368E36005F0F3FCA0602020FFF7FE
:10824000EFF8884B1A78012A0CBF002201221A701D
:10825000EB7A002B00F05683834B1B78042B40F203
:1082600051836B7803B92B732A7B12B90BB1FFF7DB
:10827000EFFB7E4942F210790A787D4F531C0522AC
:1082800093FBF2F202EB82029A1A97F90030DFF8C0
:10829000ECE1DFF818C2DFF818820A70039392004D
:1082A00000215EF82130734893FBFCF600FB063397
:1082B0007148142404FB010B58F821005BF80240BC
:1082C0004FEA810A001B039C1844012C4BF8023032
:1082D00048F82100694C0DD193FBF9F3023B9BB2A6
:1082E000B3F5797F9FBF052390FBF3F00CFB0600ED
:1082F0004AF80E0001310229D3D105F091FC604EFD
:10830000DFF8B0813368C01AFBF7ACFC5D49FBF7BE
:10831000B5FDC8F8000005F083FC3060D8F80060B7
:108320004FF07E513046FBF793FE08B94FF07E5672
:1083300007ABC8F80060544A019306AB00930CCA1F
:1083400094E80300FFF756FA069A6420B2FBF0F2B5
:10835000079B4E4993FBF0F30A804D4A13802B7B19
:108360000BB90B8013804B4BDFF84C911A789A466F
:10837000002A36D0D8F800104FF07E50FBF77EFD73
:108380008346D9F800302068C01AFBF76FFC5946C5
:10839000FBF7C0FCFBF784FED9F8043086B26068B6
:1083A00036B2C01AFBF762FC3B4B1968FBF7B2FC14
:1083B0005946FBF7AFFCFBF773FE384A00B2B2F93F
:1083C0000230B2F900E018447644022390FBF3F047
:1083D00096FBF3F3324980B29BB248800B80508009
:1083E000138001238AF80030616820682B7AC9F86D
:1083F0000410C9F8000023B9194BDB79002B00F0F9
:108400008182DFF8B8A0274E274DCDF804A0009652
:1084100095E80C00FFF7EEF963686868DFF8A09054
:10842000C01AFBF723FC1C4B1968FBF773FCFBF726
:1084300037FE22682B68C9F804009B1AC9F800307F
:1084400097F900305446012B3CD0022B00F0E78016
:1084500058E200BFBC0A0020B8090020242A0020EE
:10846000EE2A0020E40C0020962B0020950A002024
:108470003C0C0020806967FF08090020782B002051
:10848000B80A002000007A44482B0020462B002028
:10849000502B0020940A00201C00002034090020EA
:1084A00030090020B00A002054090020809698006E
:1084B000380900208C090020B0090020980A00200B
:1084C000A0090020844D854E0024CDF80C90039B1C
:1084D000DFF8408253F824A0DFF834B25046FBF7AF
:1084E000C5FB7F4B1968FBF715FCFBF7D9FD7D4BEE
:1084F00033F814707C4BC01B87B223F814703FB262
:108500003846FBF7B3FBD8F80010FBF703FCFBF78A
:10851000C7FD2A461FFA80F94346DBF8001007EB37
:108520000A00FFF7A9F9039BDBF800B053F824A079
:108530004844D8F80830308058460493FAF79EFF34
:108540006A4B804693F8BA008946FBF78BFBFAF733
:1085500095FF5FA3D3E90023FAF7E4FF02460B4639
:1085600000206349FBF708F942464B46FAF728FE1C
:1085700002460B4640464946FBF7FEF880466868CF
:10858000AF68C0EB0A008946FBF770FB5946FBF762
:1085900075FC3946FBF7B4FAFAF770FF02460B4652
:1085A00040464946FAF7BEFF804638468946FAF704
:1085B00065FF0B46024649464046FAF701FEFBF7C7
:1085C0004BFAC5F804A001462861A8600498FBF79F
:1085D000A1FBFBF765FD4FF4FA62464906F05EFA2F
:1085E000404B40F6B83233F81430434931339BB234
:1085F000622B338898BF0020184480B2308000B2CC
:1086000006F04CFA1423634355F8141B3B4A01341B
:10861000022C26F8020B995000F0748157E7334B77
:108620003568B3F9C0306E089E4228BF1E46DFF899
:10863000E890B6B2B9F8007032B23BB29A420ADDA5
:108640002F49D8F80000FBF765FBFBF729FD3844FC
:1086500086B2A9F800602B4B21681A682A4F8A1A43
:108660001046FFF74DFB41F293130028D8BF40425C
:108670009842CCBF0020012000284FD01046FBF7C5
:10868000F5FA2249FBF746FB0AF0E0FB8046284654
:10869000FBF7E8FA4146FBF73DFBFBF701FD40F62F
:1086A000B832154900B206F0F9F92368184448F6C3
:1086B000A043984203DDA0F50C40A03804E0002858
:1086C000BCBF00F50C40A030386028E0AFF300805C
:1086D000182D4454FB211940D00800201E2B0020E7
:1086E0009C0A00203009002098090020E025002085
:1086F0000000F03F30F8FFFF48F4FFFF5C09002066
:108700000000C8429009002084090020D3023739B4
:108710008C09002040090020960900203960386843
:108720007D4DC0F50C502830FBF7A0FA7B49FBF7D4
:10873000F1FA04460AF012FB099020460AF086FB83
:108740000024089030B2FBF791FA08AB53F82410DC
:10875000FBF7E0FA724B074633F91400FBF786FA91
:1087600001463846FBF7CCF9FBF79AFCDFF8F091AD
:1087700080B24FF47A7229F814006A4900B206F008
:108780008DF980B2DFF8DC810FFA80FA29F8140045
:108790005046FBF76BFAD8F80010FBF7BBFAFBF773
:1087A0007FFC614F83B22A463968039350464346A3
:1087B000FFF762F8D7F800B0D8F8083004905846B0
:1087C0000593FAF75BFE594B804693F8BA0039F9E6
:1087D00014A08946FBF746FAFAF750FE4CA3D3E9FA
:1087E0000023FAF79FFE02460B4600205049FAF795
:1087F000C3FF42464B46FAF7E3FC02460B464046AF
:108800004946FAF7B9FF80466868AF68C0EB0A00CE
:108810008946FBF72BFA5946FBF730FB3946FBF745
:108820006FF9FAF72BFE02460B4640464946FAF727
:1088300079FE804638468946FAF720FE02460B4606
:1088400040464946FAF7BCFCFBF706F9C5F804A018
:1088500001462861A8600598FBF75CFAFBF720FC4D
:10886000039A049B334F1344184480B227F8140032
:1088700040F6B832304900B206F010F914236343D1
:1088800027F8140055F8141B2C4A0134022C995077
:10889000264B7FF457AF93F8BC2032B1284A6421AD
:1088A000126892FBF1F227490A80B3F8B820264BF0
:1088B0001B689A420DD2254B1868254B1B68C01ABD
:1088C000FFF71EFA42F210730028B8BF40429842E8
:1088D00018DD204B01221A701F4B1A88194B1A8081
:1088E00010E092781D4B522A7FF401ABDA784D2AC2
:1088F0007FF4FDAA1B79432B7FF4F9AA02230B70A6
:10890000FFF7F5BA0BB0BDE8F08F00BFAFF3008002
:10891000182D4454FB2119405C090020D30237393B
:108920003009002018FCFFFF8C090020E025002002
:108930000000F03F1E2B002048F4FFFFD00800206D
:1089400084090020F42B0020B00A0020980A00209F
:10895000900900203C0C0020AA090020850A002074
:1089600098090020F80800202DE9F047384E044609
:10897000356828460AF0F2F9074628460AF066FAF2
:108980007668054630460AF0E9F9824630460AF034
:108990005DFA216881465046FBF7BCF9D4F80480A3
:1089A000A668414604462846FBF7B4F94946FBF75A
:1089B000B1F901462046FBF7A5F831460446484682
:1089C000FBF7A8F93946FBF7A5F901462046FBF766
:1089D00099F8414604463846FBF79CF9314607466C
:1089E0002846FBF797F901463846FBF789F82146F8
:1089F0000AF06AFA1749FBF78DF9FAF73FFD12A35F
:108A0000D3E90023FAF7B8FE134B044618680D4665
:108A1000FAF734FD02460B4620462946FAF7D0FB0A
:108A200000220E4BFAF7A8FEFBF716F80AF0D2F96F
:108A300083B21A0444BF00F5B47083B218B2BDE823
:108A4000F08700BFAFF30080182D4454FB2109408C
:108A5000280B00200000E144FC0A00200000244014
:108A60000F4B10B51888FBF701F90E490446FBF7C8
:108A700051F9FBF715FB0C4B214618800B48FBF70F
:108A8000FDF90B49FBF7FAF90A4B18600820FEF7CD
:108A9000BDFC18B1BDE8104003F02AB810BD00BFFE
:108AA00046000020C903683FDA0A00200AE81C419A
:108AB00000401C46582A00202DE9F04F0C688368BE
:108AC00089B0D0F80080D0F8049007462046029381
:108AD0008A460AF043F9019020460AF0B7F9DAF81D
